:040000000C943A0022
:040024000C9417031E
:140054003F065B4F666D7D077F6F777C395E797100000000F0
:14006800000000000000000000000000CFE5D4E0CDBFDEBFF3
:14007C00C051D0400AEA08830024E0E8F0E010E0EC38F10708
:1400900011F00192FBCF0083E4E5F0E0A0E6B0E010E000E0FC
:1400A4000BBFE437F10721F0C89531960D92F9CF0E945503D5
:1400B800FFCF22242BBA8FEF8ABB28BA27BA80EC85BB8FE397
:1400CC0084BB8CE082BB21BA0895222423BE83E882BF8DE779
:1400E0008CBF82E083BF0895F894E7DFF4DF222425BE2BBE49
:1400F40081E089BF789408954A935A938091700090917100C9
:1401080001961C0130927100209270002AEF30E08C010E9482
:14011C00EB030030010729F42090750020942092750080917B
:14013000700090917100883EE3E09E0740F1222433243092FB
:1401440071002092700020907400209420927400809189007C
:140158008F5F282E209289008C33A8F022242092890040916B
:14016C008A004F5F40938A004C3358F020928A0040918B008B
:140180004F5F40938B00483110F020928B0059914991089548
:1401940020908B002092880020908A00209287002090890036
:1401A8002092860008950091770011270030010749F001308C
:1401BC00E0E01E0729F00230E0E01E07C1F02BC086E890E0A0
:1401D000209077003324280E391EF10180818F5F80838C336D
:1401E400F0F086E890E0E0917700FF27E80FF91F2224208244
:1401F80014C086E890E0209177003327280F391FF9010081B5
:14020C000F5F0083083138F0E0917700FF27E80FF91F222429
:14022000208208950091770011270030010749F00130E0E0E9
:140234001E0729F00230E0E01E07C9F02CC086E890E020902E
:1402480077003324280E391EF10180818150482E40828F3F7D
:14025C00F1F486E890E0E0917700FF27E80FF91F8BE380833D
:1402700014C086E890E0209177003327280F391FF90100813C
:14028400015000830F3F39F4E0917700FF27E80FF91F87E192
:14029800808308950091770011270030010749F00130E0E010
:1402AC001E0729F00230E0E01E0719F142C086E890E020904F
:1402C00077003324280E391EF10180818A50808386E890E021
:1402D400E0917700FF27E80FF91F8081853F08F42CC086E8DE
:1402E80090E0209077003324280E391EF1018081845C8083B1
:1402FC0020C086E890E0009177001127080F191FF8018081A7
:140310008350808386E890E0E0917700FF27E80FF91F808107
:140324008C3F58F086E890E0009177001127080F191FF8014C
:140338008081885E808308952090880020928B00209087007E
:14034C0020928A00209086002092890008950E941F04442723
:14036000AA2429C0242E33244F5F89E890E0EA2DFF27E80F66
:14037400F91F00811AE00E94070480E890E0E22DFF27E80F31
:14038800F91F0083242E33244F5F89E890E0EA2DFF27E80F5A
:14039C00F91F00811AE00E94090480E890E0E22DFF27E80F07
:1403B000F91F0083A39482E08A15A0F60C9424040E941F0443
:1403C4004427AA2429C0242E33244F5F86E890E0EA2DFF2791
:1403D800E80FF91F00811AE00E94070480E890E0E22DFF27CD
:1403EC00E80FF91F0083242E33244F5F86E890E0EA2DFF27F9
:14040000E80FF91F00811AE00E94090480E890E0E22DFF27A2
:14041400E80FF91F0083A39482E08A15A0F60C942404AA9270
:14042800A02E85B38F6385BBAA2009F425C080E890E0E09193
:14043C007200FF27E80FF91FE081FF2780E690E0E80FF91F99
:1404500020802BBA20907400222041F420907200822D8230F5
:1404640011F0843009F4DF9A1091720001E00E943704202E3A
:14047800209435B2322035BAA99008956ADF01E0CEDF8091D6
:14048C0072008F5F282E20927200863018F02224209272005A
:1404A00008954A935A938CDF20907700222039F420907200BE
:1404B4002220C1F0822D8130A9F080917700813039F4209032
:1404C8007200822D823061F0833051F080917700823051F489
:1404DC0040917200443011F0453021F4009175009CDF02C087
:1404F00001E099DF409172004F5F40937200463018F02224A5
:14050400209272005991499108950E942904A02E442784E7EB
:1405180090E0EA2DFF27E80FF91F608177276030670779F02D
:14052C006130E0E07E07E1F06230E0E07E0709F433C06330BA
:14054000E0E07E0709F454C06FC001E01A2D0E94370423B248
:14055400202209F067C084E790E0EA2DFF27E80FF91F81E0A9
:1405680080835EC001E01A2D0E94370423B2202261F484E782
:14057C0090E0EA2DFF27E80FF91F82E08083222420927C00D6
:140590004BC084E790E0EA2DFF27E80FF91F2224208242C03B
:1405A40001E01A2D0E94370423B2202251F084E790E0EA2DF4
:1405B800FF27E80FF91F2224208241E031C080917C008F5F85
:1405CC00282E20927C00843648F184E790E0EA2DFF27E80F95
:1405E000F91F83E08083222420927C0042E01CC001E01A2DEF
:1405F4000E94370423B2202249F084E790E0EA2DFF27E80FB7
:14060800F91F222420820CC080917C008F5F282E20927C0013
:14061C00823320F0222420927C0042E0042F0C9430040A92CC
:140630001A922A923A924A925A926A927A928A929A920A93CD
:140644001A932A933A938A939A93AA93BA93EA93FA930FB6C8
:140658000A9283E882BF4EDD809178008F5F282E2092780024
:14066C008A3030F022242092780081E08093790009900FBEDD
:14068000F991E991B991A991999189913991299119910991D2
:14069400999089907990699059904990399029901990099088
:1406A80018951EDD92C04091760055274030450729F041303B
:1406BC00E0E05E0719F003C0DFDE01C0ECDE20907900222086
:1406D00009F47FC022242092790007E018DF402F5527403030
:1406E400450749F04130E0E05E07F9F04230E0E05E0739F13D
:1406F8004BC080917E0090917F0001961C0130927F0020920D
:14070C007E00883EE3E09E0708F43CC0222420927700209214
:140720007600332430927F0020927E0031C022243324309237
:140734007F0020927E0080917600813039F535DD25C022245F
:14074800332430927F0020927E0040917D004F5F40937D0089
:14075C004230C0F020927D0020907600222029F481E080933F
:14077000760010DD0DC0409177004F5F40937700433030F072
:1407840022242092770020927600D8DD809176008130E9F400
:1407980006E0B9DEA02E4A2D55274130E0E05E0729F04230EE
:1407AC00E0E05E0749F00FC02224332430927F0020927E00FE
:1407C00031DD07C02224332430927F0020927E0065DD6DCFC4
:1407D4000895689401C0E894EA92FA928A93EE24FF2480E180
:1407E800000F111FEE1CFF1CE216F30618F0E21AF30A03950F
:1407FC008A95A1F716F40E2D1F2D8991F990E99008956894EC
:1408100001C0E8942A93FA92EA92FF24EE2420E1000FFF1C72
:14082400EE1CE11610F0E11A03952A95B9F70EF40E2DE99007
:14083800F990299108955A934A93BA92AA920895A990B9905B
:14084C004991599108957A936A935A934A93BA92AA9208953E
:14086000A990B99049915991699179910895112319F0000F51
:060874001A95FBCF089568
:00000001FF
